{
  "_format": "hh-sol-artifact-1",
  "contractName": "JoyToken",
  "sourceName": "contracts/JoyToken.sol",
  "abi": [
    {
      "inputs": [
        {
          "internalType": "string",
          "name": "_name",
          "type": "string"
        },
        {
          "internalType": "string",
          "name": "_symbol",
          "type": "string"
        },
        {
          "internalType": "uint256",
          "name": "_totalSupply",
          "type": "uint256"
        }
      ],
      "stateMutability": "nonpayable",
      "type": "constructor"
    },
    {
      "anonymous": false,
      "inputs": [
        {
          "indexed": true,
          "internalType": "address",
          "name": "owner",
          "type": "address"
        },
        {
          "indexed": true,
          "internalType": "address",
          "name": "spender",
          "type": "address"
        },
        {
          "indexed": false,
          "internalType": "uint256",
          "name": "value",
          "type": "uint256"
        }
      ],
      "name": "Approval",
      "type": "event"
    },
    {
      "anonymous": false,
      "inputs": [
        {
          "indexed": true,
          "internalType": "address",
          "name": "from",
          "type": "address"
        },
        {
          "indexed": true,
          "internalType": "address",
          "name": "to",
          "type": "address"
        },
        {
          "indexed": false,
          "internalType": "uint256",
          "name": "value",
          "type": "uint256"
        }
      ],
      "name": "Transfer",
      "type": "event"
    },
    {
      "inputs": [
        {
          "internalType": "address",
          "name": "_owner",
          "type": "address"
        },
        {
          "internalType": "address",
          "name": "_spender",
          "type": "address"
        }
      ],
      "name": "allowance",
      "outputs": [
        {
          "internalType": "uint256",
          "name": "",
          "type": "uint256"
        }
      ],
      "stateMutability": "view",
      "type": "function"
    },
    {
      "inputs": [
        {
          "internalType": "address",
          "name": "",
          "type": "address"
        },
        {
          "internalType": "address",
          "name": "",
          "type": "address"
        }
      ],
      "name": "allowances",
      "outputs": [
        {
          "internalType": "uint256",
          "name": "",
          "type": "uint256"
        }
      ],
      "stateMutability": "view",
      "type": "function"
    },
    {
      "inputs": [
        {
          "internalType": "address",
          "name": "spender",
          "type": "address"
        },
        {
          "internalType": "uint256",
          "name": "amount",
          "type": "uint256"
        }
      ],
      "name": "approve",
      "outputs": [
        {
          "internalType": "bool",
          "name": "",
          "type": "bool"
        }
      ],
      "stateMutability": "nonpayable",
      "type": "function"
    },
    {
      "inputs": [
        {
          "internalType": "address",
          "name": "",
          "type": "address"
        }
      ],
      "name": "balanceOf",
      "outputs": [
        {
          "internalType": "uint256",
          "name": "",
          "type": "uint256"
        }
      ],
      "stateMutability": "view",
      "type": "function"
    },
    {
      "inputs": [
        {
          "internalType": "uint256",
          "name": "amount",
          "type": "uint256"
        }
      ],
      "name": "burn",
      "outputs": [],
      "stateMutability": "nonpayable",
      "type": "function"
    },
    {
      "inputs": [],
      "name": "decimals",
      "outputs": [
        {
          "internalType": "uint256",
          "name": "",
          "type": "uint256"
        }
      ],
      "stateMutability": "view",
      "type": "function"
    },
    {
      "inputs": [],
      "name": "getInfo",
      "outputs": [
        {
          "internalType": "string",
          "name": "",
          "type": "string"
        },
        {
          "internalType": "string",
          "name": "",
          "type": "string"
        }
      ],
      "stateMutability": "view",
      "type": "function"
    },
    {
      "inputs": [],
      "name": "getOwner",
      "outputs": [
        {
          "internalType": "address",
          "name": "",
          "type": "address"
        }
      ],
      "stateMutability": "view",
      "type": "function"
    },
    {
      "inputs": [],
      "name": "getTotalSupply",
      "outputs": [
        {
          "internalType": "uint256",
          "name": "",
          "type": "uint256"
        }
      ],
      "stateMutability": "view",
      "type": "function"
    },
    {
      "inputs": [
        {
          "internalType": "uint256",
          "name": "amount",
          "type": "uint256"
        }
      ],
      "name": "mint",
      "outputs": [],
      "stateMutability": "nonpayable",
      "type": "function"
    },
    {
      "inputs": [],
      "name": "name",
      "outputs": [
        {
          "internalType": "string",
          "name": "",
          "type": "string"
        }
      ],
      "stateMutability": "view",
      "type": "function"
    },
    {
      "inputs": [],
      "name": "symbol",
      "outputs": [
        {
          "internalType": "string",
          "name": "",
          "type": "string"
        }
      ],
      "stateMutability": "view",
      "type": "function"
    },
    {
      "inputs": [],
      "name": "totalSupply",
      "outputs": [
        {
          "internalType": "uint256",
          "name": "",
          "type": "uint256"
        }
      ],
      "stateMutability": "view",
      "type": "function"
    },
    {
      "inputs": [
        {
          "internalType": "address",
          "name": "recipient",
          "type": "address"
        },
        {
          "internalType": "uint256",
          "name": "amount",
          "type": "uint256"
        }
      ],
      "name": "transfer",
      "outputs": [
        {
          "internalType": "bool",
          "name": "",
          "type": "bool"
        }
      ],
      "stateMutability": "nonpayable",
      "type": "function"
    },
    {
      "inputs": [
        {
          "internalType": "address",
          "name": "sender",
          "type": "address"
        },
        {
          "internalType": "address",
          "name": "recipient",
          "type": "address"
        },
        {
          "internalType": "uint256",
          "name": "amount",
          "type": "uint256"
        }
      ],
      "name": "transferFrom",
      "outputs": [
        {
          "internalType": "bool",
          "name": "",
          "type": "bool"
        }
      ],
      "stateMutability": "nonpayable",
      "type": "function"
    }
  ],
  "bytecode": "0x608060405260126005553480156200001657600080fd5b506040516200181c3803806200181c83398181016040528101906200003c91906200027f565b33600660006101000a81548173ffffffffffffffffffffffffffffffffffffffff021916908373ffffffffffffffffffffffffffffffffffffffff16021790555082600390816200008e91906200055a565b508160049081620000a091906200055a565b508060008190555050505062000641565b6000604051905090565b600080fd5b600080fd5b600080fd5b600080fd5b6000601f19601f8301169050919050565b7f4e487b7100000000000000000000000000000000000000000000000000000000600052604160045260246000fd5b6200011a82620000cf565b810181811067ffffffffffffffff821117156200013c576200013b620000e0565b5b80604052505050565b600062000151620000b1565b90506200015f82826200010f565b919050565b600067ffffffffffffffff821115620001825762000181620000e0565b5b6200018d82620000cf565b9050602081019050919050565b60005b83811015620001ba5780820151818401526020810190506200019d565b60008484015250505050565b6000620001dd620001d78462000164565b62000145565b905082815260208101848484011115620001fc57620001fb620000ca565b5b620002098482856200019a565b509392505050565b600082601f830112620002295762000228620000c5565b5b81516200023b848260208601620001c6565b91505092915050565b6000819050919050565b620002598162000244565b81146200026557600080fd5b50565b60008151905062000279816200024e565b92915050565b6000806000606084860312156200029b576200029a620000bb565b5b600084015167ffffffffffffffff811115620002bc57620002bb620000c0565b5b620002ca8682870162000211565b935050602084015167ffffffffffffffff811115620002ee57620002ed620000c0565b5b620002fc8682870162000211565b92505060406200030f8682870162000268565b9150509250925092565b600081519050919050565b7f4e487b7100000000000000000000000000000000000000000000000000000000600052602260045260246000fd5b600060028204905060018216806200036c57607f821691505b60208210810362000382576200038162000324565b5b50919050565b60008190508160005260206000209050919050565b60006020601f8301049050919050565b600082821b905092915050565b600060088302620003ec7fffffffffffffffffffffffffffffffffffffffffffffffffffffffffffffffff82620003ad565b620003f88683620003ad565b95508019841693508086168417925050509392505050565b6000819050919050565b60006200043b620004356200042f8462000244565b62000410565b62000244565b9050919050565b6000819050919050565b62000457836200041a565b6200046f620004668262000442565b848454620003ba565b825550505050565b600090565b6200048662000477565b620004938184846200044c565b505050565b5b81811015620004bb57620004af6000826200047c565b60018101905062000499565b5050565b601f8211156200050a57620004d48162000388565b620004df846200039d565b81016020851015620004ef578190505b62000507620004fe856200039d565b83018262000498565b50505b505050565b600082821c905092915050565b60006200052f600019846008026200050f565b1980831691505092915050565b60006200054a83836200051c565b9150826002028217905092915050565b620005658262000319565b67ffffffffffffffff811115620005815762000580620000e0565b5b6200058d825462000353565b6200059a828285620004bf565b600060209050601f831160018114620005d25760008415620005bd578287015190505b620005c985826200053c565b86555062000639565b601f198416620005e28662000388565b60005b828110156200060c57848901518255600182019150602085019450602081019050620005e5565b868310156200062c578489015162000628601f8916826200051c565b8355505b6001600288020188555050505b505050505050565b6111cb80620006516000396000f3fe608060405234801561001057600080fd5b50600436106100f55760003560e01c80635a9b0b8911610097578063a0712d6811610066578063a0712d681461028b578063a9059cbb146102a7578063c4e41b22146102d7578063dd62ed3e146102f5576100f5565b80635a9b0b891461020057806370a082311461021f578063893d20e81461024f57806395d89b411461026d576100f5565b806323b872dd116100d357806323b872dd14610166578063313ce5671461019657806342966c68146101b457806355b6ed5c146101d0576100f5565b806306fdde03146100fa578063095ea7b31461011857806318160ddd14610148575b600080fd5b610102610325565b60405161010f9190610d89565b60405180910390f35b610132600480360381019061012d9190610e44565b6103b3565b60405161013f9190610e9f565b60405180910390f35b6101506104a5565b60405161015d9190610ec9565b60405180910390f35b610180600480360381019061017b9190610ee4565b6104ab565b60405161018d9190610e9f565b60405180910390f35b61019e61065c565b6040516101ab9190610ec9565b60405180910390f35b6101ce60048036038101906101c99190610f37565b610662565b005b6101ea60048036038101906101e59190610f64565b6107c9565b6040516101f79190610ec9565b60405180910390f35b6102086107ee565b604051610216929190610fa4565b60405180910390f35b61023960048036038101906102349190610fdb565b610915565b6040516102469190610ec9565b60405180910390f35b61025761092d565b6040516102649190611017565b60405180910390f35b610275610957565b6040516102829190610d89565b60405180910390f35b6102a560048036038101906102a09190610f37565b6109e5565b005b6102c160048036038101906102bc9190610e44565b610b4c565b6040516102ce9190610e9f565b60405180910390f35b6102df610c69565b6040516102ec9190610ec9565b60405180910390f35b61030f600480360381019061030a9190610f64565b610c72565b60405161031c9190610ec9565b60405180910390f35b6003805461033290611061565b80601f016020809104026020016040519081016040528092919081815260200182805461035e90611061565b80156103ab5780601f10610380576101008083540402835291602001916103ab565b820191906000526020600020905b81548152906001019060200180831161038e57829003601f168201915b505050505081565b600081600260003373ffffffffffffffffffffffffffffffffffffffff1673ffffffffffffffffffffffffffffffffffffffff16815260200190815260200160002060008573ffffffffffffffffffffffffffffffffffffffff1673ffffffffffffffffffffffffffffffffffffffff168152602001908152602001600020819055508273ffffffffffffffffffffffffffffffffffffffff163373ffffffffffffffffffffffffffffffffffffffff167f8c5be1e5ebec7d5bd14f71427d1e84f3dd0314c0f7b2291e5b200ac8c7c3b925846040516104939190610ec9565b60405180910390a36001905092915050565b60005481565b600081600260008673ffffffffffffffffffffffffffffffffffffffff1673ffffffffffffffffffffffffffffffffffffffff16815260200190815260200160002060003373ffffffffffffffffffffffffffffffffffffffff1673ffffffffffffffffffffffffffffffffffffffff168152602001908152602001600020600082825461053991906110c1565b9250508190555081600160008673ffffffffffffffffffffffffffffffffffffffff1673ffffffffffffffffffffffffffffffffffffffff168152602001908152602001600020600082825461058f91906110c1565b9250508190555081600160008573ffffffffffffffffffffffffffffffffffffffff1673ffffffffffffffffffffffffffffffffffffffff16815260200190815260200160002060008282546105e591906110f5565b925050819055508273ffffffffffffffffffffffffffffffffffffffff168473ffffffffffffffffffffffffffffffffffffffff167fddf252ad1be2c89b69c2b068fc378daa952ba7f163c4a11628f55a4df523b3ef846040516106499190610ec9565b60405180910390a3600190509392505050565b60055481565b600660009054906101000a900473ffffffffffffffffffffffffffffffffffffffff1673ffffffffffffffffffffffffffffffffffffffff163373ffffffffffffffffffffffffffffffffffffffff16146106f2576040517f08c379a00000000000000000000000000000000000000000000000000000000081526004016106e990611175565b60405180910390fd5b80600160003373ffffffffffffffffffffffffffffffffffffffff1673ffffffffffffffffffffffffffffffffffffffff168152602001908152602001600020600082825461074191906110c1565b925050819055508060008082825461075991906110c1565b92505081905550600073ffffffffffffffffffffffffffffffffffffffff163373ffffffffffffffffffffffffffffffffffffffff167fddf252ad1be2c89b69c2b068fc378daa952ba7f163c4a11628f55a4df523b3ef836040516107be9190610ec9565b60405180910390a350565b6002602052816000526040600020602052806000526040600020600091509150505481565b6060806003600481805461080190611061565b80601f016020809104026020016040519081016040528092919081815260200182805461082d90611061565b801561087a5780601f1061084f5761010080835404028352916020019161087a565b820191906000526020600020905b81548152906001019060200180831161085d57829003601f168201915b5050505050915080805461088d90611061565b80601f01602080910402602001604051908101604052809291908181526020018280546108b990611061565b80156109065780601f106108db57610100808354040283529160200191610906565b820191906000526020600020905b8154815290600101906020018083116108e957829003601f168201915b50505050509050915091509091565b60016020528060005260406000206000915090505481565b6000600660009054906101000a900473ffffffffffffffffffffffffffffffffffffffff16905090565b6004805461096490611061565b80601f016020809104026020016040519081016040528092919081815260200182805461099090611061565b80156109dd5780601f106109b2576101008083540402835291602001916109dd565b820191906000526020600020905b8154815290600101906020018083116109c057829003601f168201915b505050505081565b600660009054906101000a900473ffffffffffffffffffffffffffffffffffffffff1673ffffffffffffffffffffffffffffffffffffffff163373ffffffffffffffffffffffffffffffffffffffff1614610a75576040517f08c379a0000000000000000000000000000000000000000000000000000000008152600401610a6c90611175565b60405180910390fd5b80600160003373ffffffffffffffffffffffffffffffffffffffff1673ffffffffffffffffffffffffffffffffffffffff1681526020019081526020016000206000828254610ac491906110f5565b9250508190555080600080828254610adc91906110f5565b925050819055503373ffffffffffffffffffffffffffffffffffffffff16600073ffffffffffffffffffffffffffffffffffffffff167fddf252ad1be2c89b69c2b068fc378daa952ba7f163c4a11628f55a4df523b3ef83604051610b419190610ec9565b60405180910390a350565b600081600160003373ffffffffffffffffffffffffffffffffffffffff1673ffffffffffffffffffffffffffffffffffffffff1681526020019081526020016000206000828254610b9d91906110c1565b9250508190555081600160008573ffffffffffffffffffffffffffffffffffffffff1673ffffffffffffffffffffffffffffffffffffffff1681526020019081526020016000206000828254610bf391906110f5565b925050819055508273ffffffffffffffffffffffffffffffffffffffff163373ffffffffffffffffffffffffffffffffffffffff167fddf252ad1be2c89b69c2b068fc378daa952ba7f163c4a11628f55a4df523b3ef84604051610c579190610ec9565b60405180910390a36001905092915050565b60008054905090565b6000600260008473ffffffffffffffffffffffffffffffffffffffff1673ffffffffffffffffffffffffffffffffffffffff16815260200190815260200160002060008373ffffffffffffffffffffffffffffffffffffffff1673ffffffffffffffffffffffffffffffffffffffff16815260200190815260200160002054905092915050565b600081519050919050565b600082825260208201905092915050565b60005b83811015610d33578082015181840152602081019050610d18565b60008484015250505050565b6000601f19601f8301169050919050565b6000610d5b82610cf9565b610d658185610d04565b9350610d75818560208601610d15565b610d7e81610d3f565b840191505092915050565b60006020820190508181036000830152610da38184610d50565b905092915050565b600080fd5b600073ffffffffffffffffffffffffffffffffffffffff82169050919050565b6000610ddb82610db0565b9050919050565b610deb81610dd0565b8114610df657600080fd5b50565b600081359050610e0881610de2565b92915050565b6000819050919050565b610e2181610e0e565b8114610e2c57600080fd5b50565b600081359050610e3e81610e18565b92915050565b60008060408385031215610e5b57610e5a610dab565b5b6000610e6985828601610df9565b9250506020610e7a85828601610e2f565b9150509250929050565b60008115159050919050565b610e9981610e84565b82525050565b6000602082019050610eb46000830184610e90565b92915050565b610ec381610e0e565b82525050565b6000602082019050610ede6000830184610eba565b92915050565b600080600060608486031215610efd57610efc610dab565b5b6000610f0b86828701610df9565b9350506020610f1c86828701610df9565b9250506040610f2d86828701610e2f565b9150509250925092565b600060208284031215610f4d57610f4c610dab565b5b6000610f5b84828501610e2f565b91505092915050565b60008060408385031215610f7b57610f7a610dab565b5b6000610f8985828601610df9565b9250506020610f9a85828601610df9565b9150509250929050565b60006040820190508181036000830152610fbe8185610d50565b90508181036020830152610fd28184610d50565b90509392505050565b600060208284031215610ff157610ff0610dab565b5b6000610fff84828501610df9565b91505092915050565b61101181610dd0565b82525050565b600060208201905061102c6000830184611008565b92915050565b7f4e487b7100000000000000000000000000000000000000000000000000000000600052602260045260246000fd5b6000600282049050600182168061107957607f821691505b60208210810361108c5761108b611032565b5b50919050565b7f4e487b7100000000000000000000000000000000000000000000000000000000600052601160045260246000fd5b60006110cc82610e0e565b91506110d783610e0e565b92508282039050818111156110ef576110ee611092565b5b92915050565b600061110082610e0e565b915061110b83610e0e565b925082820190508082111561112357611122611092565b5b92915050565b7f4e6f74206f776e65720000000000000000000000000000000000000000000000600082015250565b600061115f600983610d04565b915061116a82611129565b602082019050919050565b6000602082019050818103600083015261118e81611152565b905091905056fea2646970667358221220978acbc0c0fc5d86b727f0b380c3da9dcfac290875b8817c850f8eff92a09b9364736f6c63430008110033",
  "linkReferences": {},
  "deployedLinkReferences": {}
}